{
  "_format": "hh-sol-artifact-1",
  "contractName": "Doc",
  "sourceName": "contracts/Doc.sol",
  "abi": [
    {
      "inputs": [],
      "stateMutability": "nonpayable",
      "type": "constructor"
    },
    {
      "inputs": [],
      "name": "allContracts",
      "outputs": [
        {
          "components": [
            {
              "internalType": "uint256",
              "name": "id",
              "type": "uint256"
            },
            {
              "internalType": "string",
              "name": "desc",
              "type": "string"
            }
          ],
          "internalType": "struct Doc.Contract[]",
          "name": "",
          "type": "tuple[]"
        }
      ],
      "stateMutability": "view",
      "type": "function"
    },
    {
      "inputs": [
        {
          "internalType": "uint256",
          "name": "",
          "type": "uint256"
        }
      ],
      "name": "contracts",
      "outputs": [
        {
          "internalType": "uint256",
          "name": "id",
          "type": "uint256"
        },
        {
          "internalType": "string",
          "name": "desc",
          "type": "string"
        }
      ],
      "stateMutability": "view",
      "type": "function"
    },
    {
      "inputs": [],
      "name": "count",
      "outputs": [
        {
          "internalType": "uint256",
          "name": "",
          "type": "uint256"
        }
      ],
      "stateMutability": "view",
      "type": "function"
    },
    {
      "inputs": [
        {
          "internalType": "string",
          "name": "_desc",
          "type": "string"
        }
      ],
      "name": "createContract",
      "outputs": [],
      "stateMutability": "nonpayable",
      "type": "function"
    },
    {
      "inputs": [],
      "name": "manager",
      "outputs": [
        {
          "internalType": "address",
          "name": "",
          "type": "address"
        }
      ],
      "stateMutability": "view",
      "type": "function"
    }
  ],
  "bytecode": "0x6080604052600060015534801561001557600080fd5b5033600260006101000a81548173ffffffffffffffffffffffffffffffffffffffff021916908373ffffffffffffffffffffffffffffffffffffffff160217905550610b43806100666000396000f3fe608060405234801561001057600080fd5b50600436106100575760003560e01c806306661abd1461005c57806318f80bb91461007a578063474da79a14610096578063481c6a75146100c757806374aef1d1146100e5575b600080fd5b610064610103565b60405161007191906103c3565b60405180910390f35b610094600480360381019061008f919061044d565b610109565b005b6100b060048036038101906100ab91906104c6565b6101cd565b6040516100be929190610583565b60405180910390f35b6100cf610289565b6040516100dc91906105f4565b60405180910390f35b6100ed6102af565b6040516100fa9190610767565b60405180910390f35b60015481565b60006040518060400160405280600154815260200184848080601f016020809104026020016040519081016040528093929190818152602001838380828437600081840152601f19601f8201169050808301925050505050505081525090806001815401808255809150506001900390600052602060002090600202016000909190919091506000820151816000015560208201518160010190816101ae91906109c4565b505050600160008154809291906101c490610ac5565b91905055505050565b600081815481106101dd57600080fd5b9060005260206000209060020201600091509050806000015490806001018054610206906107e7565b80601f0160208091040260200160405190810160405280929190818152602001828054610232906107e7565b801561027f5780601f106102545761010080835404028352916020019161027f565b820191906000526020600020905b81548152906001019060200180831161026257829003601f168201915b5050505050905082565b600260009054906101000a900473ffffffffffffffffffffffffffffffffffffffff1681565b60606000805480602002602001604051908101604052809291908181526020016000905b828210156103a1578382906000526020600020906002020160405180604001604052908160008201548152602001600182018054610310906107e7565b80601f016020809104026020016040519081016040528092919081815260200182805461033c906107e7565b80156103895780601f1061035e57610100808354040283529160200191610389565b820191906000526020600020905b81548152906001019060200180831161036c57829003601f168201915b505050505081525050815260200190600101906102d3565b50505050905090565b6000819050919050565b6103bd816103aa565b82525050565b60006020820190506103d860008301846103b4565b92915050565b600080fd5b600080fd5b600080fd5b600080fd5b600080fd5b60008083601f84011261040d5761040c6103e8565b5b8235905067ffffffffffffffff81111561042a576104296103ed565b5b602083019150836001820283011115610446576104456103f2565b5b9250929050565b60008060208385031215610464576104636103de565b5b600083013567ffffffffffffffff811115610482576104816103e3565b5b61048e858286016103f7565b92509250509250929050565b6104a3816103aa565b81146104ae57600080fd5b50565b6000813590506104c08161049a565b92915050565b6000602082840312156104dc576104db6103de565b5b60006104ea848285016104b1565b91505092915050565b600081519050919050565b600082825260208201905092915050565b60005b8381101561052d578082015181840152602081019050610512565b60008484015250505050565b6000601f19601f8301169050919050565b6000610555826104f3565b61055f81856104fe565b935061056f81856020860161050f565b61057881610539565b840191505092915050565b600060408201905061059860008301856103b4565b81810360208301526105aa818461054a565b90509392505050565b600073ffffffffffffffffffffffffffffffffffffffff82169050919050565b60006105de826105b3565b9050919050565b6105ee816105d3565b82525050565b600060208201905061060960008301846105e5565b92915050565b600081519050919050565b600082825260208201905092915050565b6000819050602082019050919050565b610644816103aa565b82525050565b600082825260208201905092915050565b6000610666826104f3565b610670818561064a565b935061068081856020860161050f565b61068981610539565b840191505092915050565b60006040830160008301516106ac600086018261063b565b50602083015184820360208601526106c4828261065b565b9150508091505092915050565b60006106dd8383610694565b905092915050565b6000602082019050919050565b60006106fd8261060f565b610707818561061a565b9350836020820285016107198561062b565b8060005b85811015610755578484038952815161073685826106d1565b9450610741836106e5565b925060208a0199505060018101905061071d565b50829750879550505050505092915050565b6000602082019050818103600083015261078181846106f2565b905092915050565b7f4e487b7100000000000000000000000000000000000000000000000000000000600052604160045260246000fd5b7f4e487b7100000000000000000000000000000000000000000000000000000000600052602260045260246000fd5b600060028204905060018216806107ff57607f821691505b602082108103610812576108116107b8565b5b50919050565b60008190508160005260206000209050919050565b60006020601f8301049050919050565b600082821b905092915050565b60006008830261087a7fffffffffffffffffffffffffffffffffffffffffffffffffffffffffffffffff8261083d565b610884868361083d565b95508019841693508086168417925050509392505050565b6000819050919050565b60006108c16108bc6108b7846103aa565b61089c565b6103aa565b9050919050565b6000819050919050565b6108db836108a6565b6108ef6108e7826108c8565b84845461084a565b825550505050565b600090565b6109046108f7565b61090f8184846108d2565b505050565b5b81811015610933576109286000826108fc565b600181019050610915565b5050565b601f8211156109785761094981610818565b6109528461082d565b81016020851015610961578190505b61097561096d8561082d565b830182610914565b50505b505050565b600082821c905092915050565b600061099b6000198460080261097d565b1980831691505092915050565b60006109b4838361098a565b9150826002028217905092915050565b6109cd826104f3565b67ffffffffffffffff8111156109e6576109e5610789565b5b6109f082546107e7565b6109fb828285610937565b600060209050601f831160018114610a2e5760008415610a1c578287015190505b610a2685826109a8565b865550610a8e565b601f198416610a3c86610818565b60005b82811015610a6457848901518255600182019150602085019450602081019050610a3f565b86831015610a815784890151610a7d601f89168261098a565b8355505b6001600288020188555050505b505050505050565b7f4e487b7100000000000000000000000000000000000000000000000000000000600052601160045260246000fd5b6000610ad0826103aa565b91507fffffffffffffffffffffffffffffffffffffffffffffffffffffffffffffffff8203610b0257610b01610a96565b5b60018201905091905056fea26469706673582212204bb0aa5252b37edc30f015f0f4417ae8a9c0b46d94e32f0dfa73ba00024b577a64736f6c63430008130033",
  "linkReferences": {},
  "deployedLinkReferences": {}
}